S015000053445F436172645F636865636B2E7372656342
S31508000000008001206D250008952300089D2300081F
S31508000010A5230008AD230008B5230008000000004A
S31508000020000000000000000000000000BD230008DA
S31508000030CB23000800000000D9230008E9230008A4
S31508000040BD250008BD250008BD250008BD250008FA
S31508000050BD250008BD250008BD250008BD250008EA
S31508000060BD250008BD250008BD250008BD250008DA
S31508000070BD250008BD250008BD250008BD250008CA
S31508000080BD250008BD250008BD250008BD250008BA
S31508000090BD250008BD250008BD250008BD250008AA
S315080000A0BD250008BD250008BD2500082524000833
S315080000B0BD250008BD250008BD250008BD2500088A
S315080000C0BD250008BD250008BD250008BD2500087A
S315080000D0BD250008BD250008BD250008BD2500086A
S315080000E0BD250008BD250008BD250008BD2500085A
S315080000F0BD250008BD250008BD250008BD2500084A
S31508000100BD250008BD250008BD250008BD25000839
S31508000110BD250008BD250008BD250008BD25000829
S31508000120BD250008BD250008BD250008BD25000819
S31508000130BD250008BD250008BD250008BD25000809
S31508000140BD250008BD250008BD250008BD250008F9
S31508000150BD250008BD250008BD250008BD250008E9
S31508000160BD250008BD250008BD250008BD250008D9
S31508000170BD250008BD250008BD25000800000000B3
S30D08000180BD250008BD25000895
S3150800019010B5054C237833B9044B13B10448AFF3B3
S315080001A000800123237010BDC40000200000000059
S315080001B0E0B6000808B5034B1BB103490348AFF383
S315080001C0008008BD00000000C8000020E0B6000856
S315080001D0034613F8012B002AFBD1181A0138704779
S315080001E001F0FF01102A2BDB10F0070F08D010F8DA
S315080001F0013B013A8B422DD010F0070F42B3F6D1DE
S31508000200F0B441EA012141EA014122F007047FF0F6
S3150800021000070023F0E80256083C85EA010586EA4D
S31508000220010685FA47F5A3FA87F586FA47F6A5FA89
S3150800023087F68EB9EED1F0BC01F0FF0102F0070295
S3150800024032B110F8013B013A83EA010313B1F8D140
S315080002500020704701387047002D06BF3546033821
S31508000260073815F0010F07D1013015F4807F02BF5A
S31508000270013015F4C03F0130F0BC0138704700BFAB
S3150800028070B54FF0FF0C4CF4E06C1CEA11541DBF1E
S315080002901CEA135594EA0C0F95EA0C0F00F0DEF8E9
S315080002A02C4481EA030621EA4C5123EA4C5350EACE
S315080002B0013518BF52EA033541F4801143F480131F
S315080002C038D0A0FB02CE4FF00005E1FB02E506F0B0
S315080002D00042E0FB03E54FF00006E1FB03569CF005
S315080002E0000F18BF4EF0010EA4F1FF04B6F5007F0B
S315080002F064F5407404D25FEA4E0E6D4146EB06067D
S3150800030042EAC62141EA55514FEAC52040EA5E5005
S315080003104FEACE2EB4F1FD0C88BFBCF5E06F1ED8AF
S31508000320BEF1004F08BF5FEA500E50F1000041EBE6
S31508000330045170BD06F0004646EA010140EA020093
S3150800034081EA0301B4EB5C04C2BFD4EB0C0541EAB5
S31508000350045170BD41F480114FF0000E013C00F3CA
S31508000360AB8014F1360FDEBF002001F0004170BDEE
S31508000370C4F10004203C35DA0C341BDC04F1140407
S31508000380C4F1200500FA05F320FA04F001FA05F293
S3150800039040EA020001F0004221F0004110EBD37060
S315080003A021FA04F642EB06015EEA430E08BF20EA8C
S315080003B0D37070BDC4F10C04C4F1200500FA04F32F
S315080003C020FA05F001FA04F240EA020001F00041C1
S315080003D010EBD37041F100015EEA430E08BF20EA34
S315080003E0D37070BDC4F1200500FA05F24EEA020E7C
S315080003F020FA04F301FA05F243EA020321FA04F0AB
S3150800040001F0004121FA04F220EA020000EBD37061
S315080004105EEA430E08BF20EAD37070BD94F0000F61
S315080004200FD101F00046400041EB010111F4801F95
S3150800043008BF013CF7D041EA060195F0000F18BF46
S31508000440704703F00046520043EB030313F4801F82
S3150800045008BF013DF7D043EA0603704794EA0C0F3C
S315080004600CEA135518BF95EA0C0F0CD050EA410652
S3150800047018BF52EA4306D1D181EA030101F00041CF
S315080004804FF0000070BD50EA410606BF10461946F7
S3150800049052EA430619D094EA0C0F02D150EA013603
S315080004A013D195EA0C0F05D152EA03361CBF104644
S315080004B019460AD181EA030101F0004141F0FE41E3
S315080004C041F470014FF0000070BD41F0FE4141F467
S315080004D0780170BD81F0004102E000BF83F000435F
S315080004E030B54FEA41044FEA430594EA050F08BFC1
S315080004F090EA020F1FBF54EA000C55EA020C7FEA85
S31508000500645C7FEA655C00F0E2804FEA5454D4EB01
S315080005105555B8BF6D420CDD2C4480EA020281EACB
S31508000520030382EA000083EA010180EA020281EA03
S315080005300303362D88BF30BD11F0004F4FEA013155
S315080005404FF4801C4CEA113102D0404261EB410164
S3150800055013F0004F4FEA03334CEA133302D05242EA
S3150800056063EB430394EA050F00F0A780A4F10104A6
S31508000570D5F1200E0DDB02FA0EFC22FA05F28018E0
S3150800058041F1000103FA0EF2801843FA05F35941C6
S315080005900EE0A5F120050EF1200E012A03FA0EFC45
S315080005A028BF4CF0020C43FA05F3C01851EBE3716F
S315080005B001F0004507D54FF0000EDCF1000C7EEB8C
S315080005C000006EEB0101B1F5801F1BD3B1F5001FCA
S315080005D00CD349085FEA30004FEA3C0C04F10104E9
S315080005E04FEA445212F5800F80F09A80BCF1004F12
S315080005F008BF5FEA500C50F1000041EB045141EA94
S31508000600050130BD5FEA4C0C404141EB0101013C5C
S3150800061028BFB1F5801FE9D291F0000F04BF01464B
S315080006200020B1FA81F308BF2033A3F10B03B3F11D
S3150800063020020CDA0C3208DD02F1140CC2F10C02AD
S3150800064001FA0CF021FA02F10CE002F11402D8BF0B
S31508000650C2F1200C01FA02F120FA0CFCDCBF41EAD7
S315080006600C019040E41AA2BF01EB0451294330BDA6
S315080006706FEA04041F3C1CDA0C340EDC04F1140483
S31508000680C4F1200220FA04F001FA02F340EA03005A
S3150800069021FA04F345EA030130BDC4F10C04C4F1A0
S315080006A0200220FA02F001FA04F340EA0300294680
S315080006B030BD21FA04F0294630BD94F0000F83F4CA
S315080006C0801306BF81F480110134013D4EE77FEAAD
S315080006D0645C18BF7FEA655C29D094EA050F08BFF9
S315080006E090EA020F05D054EA000C04BF19461046DA
S315080006F030BD91EA030F1EBF0021002030BD5FEA1E
S31508000700545C05D14000494128BF41F0004130BD45
S3150800071014F580043CBF01F5801130BD01F0004599
S3150800072045F0FE4141F470014FF0000030BD7FEA0C
S31508000730645C1ABF194610467FEA655C1CBF0B4607
S31508000740024650EA013406BF52EA033591EA030F1E
S3150800075041F4002130BD00BF90F0000F04BF002116
S31508000760704730B54FF4806404F132044FF0000549
S315080007704FF0000150E700BF90F0000F04BF0021C2
S31508000780704730B54FF4806404F1320410F0004528
S3150800079048BF40424FF000013EE700BF42004FEA23
S315080007A0E2014FEA31014FEA02701FBF12F07F43A0
S315080007B093F07F4F81F06051704732F07F4208BF57
S315080007C0704793F07F4F04BF41F40021704730B55E
S315080007D04FF4607401F0004521F000411CE700BFAA
S315080007E050EA010208BF704730B54FF000050AE02D
S315080007F050EA010208BF704730B511F0004502D52E
S31508000800404261EB41014FF4806404F132045FEA2F
S31508000810915C3FF4D8AE4FF003025FEADC0C18BFD8
S3150800082003325FEADC0C18BF033202EBDC02C2F1CA
S31508000830200300FA03FC20FA02F001FA03FE40EA5C
S315080008400E0021FA02F11444BDE600BF4A0011D297
S3150800085012F5001211D20DD56FF47873B3EB62520C
S315080008600ED44FEAC12343F0004343EA505323FA18
S3150800087002F070474FF00000704750EA013002D18D
S315080008804FF0FF3070474FF00000704753B94AB930
S31508000890002908BF00281CBF4FF0FF314FF0FF307A
S315080008A000F088B9ADF1080C6DE904CE00F006F841
S315080008B0DDF804E0DDE9022304B070472DE9F047CE
S315080008C0089D8E4604468846002B4AD18A4217461A
S315080008D062D9B2FA82F64EB1C6F1200301FA06F8D9
S315080008E020FA03F3B74043EA0808B4404FEA174E24
S315080008F01FFA87FCB8FBFEF1230C0EFB118843EAAE
S31508000900084301FB0CF29A4209D9FB1801F1FF30A2
S3150800091080F0EA809A4240F2E78002393B449A1A0C
S31508000920A3B2B2FBFEF00EFB102243EA024300FB21
S315080009300CFC9C4509D9FB1800F1FF3280F0D680E3
S315080009409C4540F2D3803B44023840EA0140A3EB81
S315080009500C0300211DB1F3400022C5E90032BDE8B1
S31508000960F0878B4205D90DB1C5E90001002108467B
S31508000970F5E7B3FA83F1002946D1734502D38242DB
S3150800098000F20581841A6EEB030201209046002DC1
S31508000990E5D0C5E90048E2E7002A00F09080B2FAFF
S315080009A082F6002E40F0A4808A1A030C4FEA174EEE
S315080009B080B2BCB20121B2FBFEFC0EFB1C2243EA4C
S315080009C0024304FB0CF29A4207D9FB180CF1FF38D4
S315080009D002D29A4200F2E080C4469B1AB3FBFEF2AA
S315080009E00EFB123340EA034302FB04F49C4207D988
S315080009F0FB1802F1FF3002D29C4200F2CA8002467E
S31508000A001B1B42EA0C40A5E7C1F120068B4022FADF
S31508000A1006F71F430EFA01F420FA06F32EFA06FE2D
S31508000A204FEA1749234300FA01F81FFA87FCBEFB71
S31508000A30F9F01C0C09FB10EE44EA0E4400FB0CFE10
S31508000A40A64502FA01F209D93C1900F1FF3A80F0ED
S31508000A509C80A64540F2998002383C44A4EB0E04DB
S31508000A601FFA83FEB4FBF9F309FB13444EEA044468
S31508000A7003FB0CFCA44508D93C1903F1FF3E80F0A2
S31508000A808280A4457FD9023B3C4443EA0040A4EB5C
S31508000A900C04A0FB02EC64457346E14662D35FD0C2
S31508000AA05DB1B8EB030264EB090404FA06F622FA10
S31508000AB001F31E43CC40C5E9006400214FE7B1FBB2
S31508000AC0F2FC010C41EA0E4180B240EA01423B4683
S31508000AD038463C46B846BE462026B1FBF7F1A2EB9F
S31508000AE0080241EA0C4166E7014618E710462CE77A
S31508000AF0C6F120022EFA02F3B740B14020FA02F2FC
S31508000B004FEA174E0A43B3FBFEF8BCB20EFB183386
S31508000B10110C41EA034108FB04F9B04089454FEA44
S31508000B20104380B23ED9791808F1FF3C01D28945B5
S31508000B301FD8A1EB0901B1FBFEF909FB04F80EFB6E
S31508000B40191192B242EA0142424529D2BA1809F16C
S31508000B50FF31C4D24245C2D2A9F102013A44BEE7E6
S31508000B60F0459DD2BEEB02036CEB070C0138E1465B
S31508000B7096E7A7EB09094944A8F1020CB1FBFEF96F
S31508000B8009FB04F8DBE773467FE7504666E7084645
S31508000B90FDE63B44023A33E7ACF1020C3B441CE762
S31508000BA049469CE7A1EB0901C446B1FBFEF909FBDE
S31508000BB004F8C4E7704700BF80B500AF00220221E1
S31508000BC0034802F059F8012001F076FD00BF80BD08
S31508000BD00008004880B500AF01220221034802F050
S31508000BE04BF8012001F068FD00BF80BD00080048F1
S31508000BF080B582B000AF0346FB7100BF084B1B6887
S31508000C009B6803F00203022BF8D1F91D6423012225
S31508000C10034804F072F800BF0837BD4680BD00BF20
S31508000C203C01002080B582B000AF78600B467B801F
S31508000C3000BF084B1B689B6803F00203022BF8D120
S31508000C407A8864237968034804F057F800BF0837A0
S31508000C50BD4680BD3C01002080B584B002AFFF23AD
S31508000C60FB7100BF094B1B689B6803F00203022B4C
S31508000C70F8D1BA1DF91D642300930123034804F033
S31508000C80B2F9BB7918460837BD4680BD3C0100203D
S31508000C9080B582B000AF7860FFF7DEFF03461A46DC
S31508000CA07B681A7000BF0837BD4680BD80B582B024
S31508000CB000AF0A4B4FF4FA721A80FFF7CDFF0346CE
S31508000CC0FB71FB79FF2B03D0044B1B88002BF4D157
S31508000CD0FB7918460837BD4680BD00BFE2000020F4
S31508000CE080B584B000AF41F6FF73FB60FFF772FF73
S31508000CF00023BB6005E0FF20FFF77AFFBB680133DE
S31508000D00BB60BB68092BF6DDFFF756FF40233B7037
S31508000D1000237B700023BB700023FB7000233B710C
S31508000D2095237B713B4606211846FFF77BFF02E0B9
S31508000D30FB68013BFB60FFF78FFF0346012B02D0E0
S31508000D40FB68002BF4D1FFF745FFFF20FFF750FFA4
S31508000D50034B01221A7000BF1037BD4680BD00BF85
S31508000D60E500002080B400AF034B00221A7000BFD4
S31508000D70BD465DF8047B7047E500002080B400AFEF
S31508000D80034B1B781846BD465DF8047B704700BFC9
S31508000D90E500002080B584B000AF78603960134B59
S31508000DA0C8221A80FFF758FF0346FB73FB7BFF2B0D
S31508000DB003D10E4B1B88002BF4D1FB7BFE2B01D0F5
S31508000DC000230FE07B685A1C7A601846FFF760FF1D
S31508000DD03B685A1E3A60002BF4D1FFF73DFFFFF738
S31508000DE03BFF012318461037BD4680BDE0000020B2
S31508000DF080B584B000AF78600B46FB700023BB73E8
S31508000E00FFF754FF0346FF2B01D000232FE0FB78A2
S31508000E101846FFF7EDFEFB78FD2B20D04FF4007146
S31508000E207868FFF7FFFEFFF717FFFFF715FF0BE0E0
S31508000E30FFF712FF0346FB73FB7B03F01F03052B2B
S31508000E4006D0BB7B0133BB73BB7B402BF0D900E0DC
S31508000E5000BF00BFFFF700FF0346002BFAD0FB7B5D
S31508000E6003F01F03052B01D1012300E000231846D8
S31508000E701037BD4680BD80B584B000AF03463960E3
S31508000E80FB71FFF713FF0346FF2B01D0FF2342E058
S31508000E90FB791846FFF7ACFE3B681B0EDBB218461B
S31508000EA0FFF7A6FE3B681B0CDBB21846FFF7A0FE51
S31508000EB03B681B0ADBB21846FFF79AFE3B68DBB2B3
S31508000EC01846FFF795FEFB79402B02D19523FB7355
S31508000ED007E0FB79482B02D18723FB7301E0012346
S31508000EE0FB73FB7B1846FFF783FEFB794C2B01D17E
S31508000EF0FFF7B2FE0A23BB73FFF7AEFE03467B730A
S31508000F0097F90D30002B05DABB7B013BBB73BB7B26
S31508000F10002BF1D17B7B18461037BD4680BD0000FB
S31508000F2090B585B000AF0346FB71FB79002B01D065
S31508000F300123D1E06A4B1B78DBB203F00203002BD6
S31508000F4003D0674B1B78DBB2C6E0FFF7C9FEFFF795
S31508000F5033FE0023BB7300214020FFF78CFF0346B6
S31508000F60012B40F0A1805F4B4FF47A721A804FF440
S31508000F70D5714820FFF77FFF0346012B55D1002383
S31508000F80FB730CE0FC7BFFF767FE03461A4604F189
S31508000F9010033B4403F8082CFB7B0133FB73FB7BF4
S31508000FA0032BEFD9BB7A012B7ED1FB7AAA2B7BD1F7
S31508000FB000217720FFF75FFF0346012B07D84FF084
S31508000FC080416920FFF757FF0346002B04D0454BA5
S31508000FD01B88002BECD100E000BF424B1B88002B7E
S31508000FE062D000217A20FFF746FF0346002B5BD12B
S31508000FF00023FB730CE0FC7BFFF72EFE03461A4624
S3150800100004F110033B4403F8082CFB7B0133FB7304
S31508001010FB7B032BEFD93B7A03F04003002B01D06F
S315080010200C2300E00423BB733EE000217720FFF782
S3150800103022FF0346012B08D800216920FFF71BFF72
S315080010400346012B01D8022300E00123BB73BB7BB7
S31508001050022B0ED100217720FFF70DFF0346012B47
S315080010600ED800216920FFF706FF0346002B07D19B
S315080010700CE000214120FFF7FEFE0346002B04D0BA
S31508001080184B1B88002BE2D100E000BF154B1B88CC
S31508001090002B07D04FF400715020FFF7ECFE0346F3
S315080010A0002B01D00023BB730F4ABB7B1370FFF7DD
S315080010B091FDFFF7D1FDBB7B002B08D0084B1B78B1
S315080010C0DBB223F00103DAB2054B1A7001E0FFF731
S315080010D049FE034B1B78DBB218461437BD4690BD54
S315080010E000000020E0000020E400002080B483B067
S315080010F000AF0346FB71FB79002B01D0012302E008
S31508001100044B1B78DBB218460C37BD465DF8047BEA
S31508001110704700BF0000002080B584B000AFB960FA
S315080011207A603B600346FB73FB7B002B02D13B686E
S31508001130002B01D1042351E02A4B1B78DBB203F0C4
S315080011400103002B01D0032348E0274B1B7803F04B
S315080011500403002B02D17B685B027B60FFF72CFD42
S315080011603B68012B11D179685120FFF784FE0346AD
S31508001170002B29D14FF40071B868FFF70BFE034620
S31508001180002B21D000233B601EE079685220FFF730
S3150800119072FE0346002B17D14FF40071B868FFF7AB
S315080011A0F9FD0346002B0AD0BB6803F50073BB6044
S315080011B03B68013B3B603B68002BEDD100E000BF7C
S315080011C000214C20FFF757FEFFF704FDFFF744FD0B
S315080011D03B68002B14BF01230023DBB218461037E7
S315080011E0BD4680BD00000020E400002080B584B024
S315080011F000AFB9607A603B600346FB73FB7B002B4C
S3150800120002D13B68002B01D104236BE0374B1B78D6
S31508001210DBB203F00103002B01D0032362E0334B5A
S315080012201B78DBB203F00403002B01D0022359E03C
S315080012302F4B1B7803F00403002B02D17B685B025B
S315080012407B60FFF7B9FC3B68012B10D17968582001
S31508001250FFF711FE0346002B3AD1FE21B868FFF7C7
S31508001260C7FD0346002B33D000233B6030E0204BFC
S315080012701B7803F00203002B07D000217720FFF725
S31508001280FAFD39685720FFF7F6FD79685920FFF708
S31508001290F2FD0346002B1BD1FC21B868FFF7A8FD19
S315080012A00346002B0AD0BB6803F50073BB603B6896
S315080012B0013B3B603B68002BEED100E000BFFD21FF
S315080012C00020FFF795FD0346002B01D101233B6063
S315080012D0FFF780FCFFF7C0FC3B68002B14BF012317
S315080012E00023DBB218461037BD4680BD000000203B
S315080012F0E400002090B58BB000AF03463A60FB715E
S315080013000B46BB713B683B62FB79002B01D004237B
S3150800131013E1012387F82730BB79052B24D13B6AD3
S315080013201B78022B12D0022B1ADC002B02D0012BC1
S3150800133006D015E0FFF716FD002387F82730FAE0F8
S31508001340FFF7CEFC002387F82730F4E03B6A5C1CE5
S31508001350FFF714FD03462370002387F82730EAE0D9
S31508001360042387F82730E6E0764B1B78DBB203F0D8
S315080013700103002B01D00323DFE0FFF71DFCBB7937
S315080013800D2B00F2C98001A252F823F0831400083D
S31508001390C513000873140008191500081915000864
S315080013A01915000819150008191500081915000857
S315080013B0191500081915000895140008B91400082D
S315080013C0DD14000800214920FFF755FD0346002BD0
S315080013D040F0A68007F10C0310211846FFF7DAFC47
S315080013E00346002B00F09C803B7B9B09DBB2012B5C
S315080013F00DD17B7D1A463B7D1B029BB213449BB2E3
S315080014000133FB83FB8B9A023B681A602DE07B7CD9
S3150800141003F00F03DAB2BB7DDB09DBB21344DAB2A1
S315080014207B7D5B00DBB203F00603DBB21344DBB261
S31508001430023387F826303B7D9B09DBB21A46FB7CD4
S315080014409B009BB213449AB2BB7C9B029BB203F4EB
S3150800145040639BB213449BB20133FB83FA8B97F824
S315080014602630093B9A403B681A60002387F82730E4
S3150800147056E03B684FF400721A80002387F827303D
S3150800148055E0FFF713FC0346FF2B4BD1002387F8E3
S31508001490273047E000214920FFF7EDFC0346002BE3
S315080014A042D11021386AFFF775FC0346002B3BD062
S315080014B0002387F8273037E000214A20FFF7DBFCB6
S315080014C00346002B32D11021386AFFF763FC034626
S315080014D0002B2BD0002387F8273027E000217A201D
S315080014E0FFF7C9FC0346002B16D1002387F82630E0
S315080014F00BE03C6A631C3B62FFF7AEFB03462370B6
S3150800150097F82630013387F8263097F82630032BCC
S31508001510EFD9002387F82730042387F8273006E019
S3150800152000BF04E000BF02E000BF00E000BFFFF715
S3150800153051FBFFF791FB97F8273018462C37BD4625
S3150800154090BD00BF0000002080B483B000AF786073
S315080015504FF06043D3F8803E03F00103002B13D00D
S315080015604FF06043D3F8003E03F00103002B0BD085
S3150800157000E000BF4FF060431B68002BF9D04FF026
S3150800158060437A68D2B21A707B6818460C37BD4633
S315080015905DF8047B704780B586B000AFF860B96027
S315080015A07A6000237B6100237B6109E0BB685A1CD3
S315080015B0BA601B781846FFF7C7FF7B6901337B6162
S315080015C07A697B689A42F1DB7B6818461837BD460C
S315080015D080BD000080B584B000AF78607B681B686A
S315080015E04A4A934240F08D807B681B7F012B40F06E
S315080015F08880474B1B78DBB2002B1AD1002178680C
S3150800160004F0BAFB0346434A1360414B01221A70A1
S315080016107B681B681A6A7B681B6822F00A021A62D2
S315080016207B681B681A6A7B681B6842F002021A62AA
S3150800163067E0374B1B78DBB2012B62D10021786853
S3150800164004F09AFB0346344A13607B681B68002241
S315080016505A62314B1A682F4B1B689A4207D92E4B90
S315080016601A682C4B1B68D31A2C4A13600FE0294BB7
S315080016701A68294B1B689A4209D9274B1A68254BC1
S315080016801B68D31A03F57F43FF33244A1360234BA1
S315080016901B6807EE903AF8EE677AC7ED037AD7ED3E
S315080016A0037A9FED1F7A27EE877AF0EE006AC7EE77
S315080016B0267AC7ED027AD7ED027AB6EE007A77EE89
S315080016C0877AFCEEE77A17EE903A9AB2154B1A80AB
S315080016D00F4B00221A707B681B681A6A7B681B68A6
S315080016E022F00A021A627B681A687B681B68126A0B
S315080016F01A627B681B68DA687B681B6822F002023C
S31508001700DA6000BF1037BD4680BD00BF002C01401F
S315080017105023002044230020482300204C23002087
S3150800172096430B3D5223002080B582B000AF00F0EF
S31508001730B7FF7860284B00221A70284B00221A80BF
S31508001740274B00221A60274B00221A60264B0022DC
S315080017501A60264B1B6800225A62244B1B68DA68FB
S31508001760224B1B6842F00202DA6001224FF4004164
S315080017701F4801F081FA00233B6002E03B68013311
S315080017803B603B68B3F5487FF8DB00224FF4004125
S31508001790174801F071FA12E000F082FF02467B68F2
S315080017A0D31A1E2B0BD90D4B00221A800F4B1B6820
S315080017B0DA680E4B1B6822F00202DA6004E0074B77
S315080017C01B889BB2002BE7D0044B1B889BB218469C
S315080017D00837BD4680BD00BF502300205223002095
S315080017E04C2300204423002048230020A001002089
S315080017F00004004880B588B000AF00F0E1FE00F0B4
S315080018008DF800F0E5F900F01BF905F063FB00F030
S31508001810AFF900F0D5F800F051F9374808F026FF7F
S3150800182000F04AFA0021354803F0B8FF3448FEF7BD
S31508001830CFFC03469AB264233149324804F0ECFDE2
S31508001840FFF772FF03461A462F4B1A802E4B1B884A
S315080018509BB2002B33D02C4B1B889BB2952B2ED8D2
S315080018602A4B1B889BB2002B41D12948FEF7B0FCB6
S3150800187003469AB264232649224804F0CDFD224B3A
S315080018801B889BB21A463B462249184608F0F6FEC4
S315080018903B461846FEF79CFC03469AB23946642333
S315080018A0184804F0B9FD00F05BFB174B1B889BB288
S315080018B0184600F0B5FA154B01221A8017E0134BAB
S315080018C01B889BB2012B12D11348FEF781FC0346F5
S315080018D09AB2642310490B4804F09EFD0A4B1B88F4
S315080018E09BB2184600F0C6FA084B00221A80C82098
S315080018F000F0E2FEA4E700BF4CB70008A0010020F4
S3150800190004000020EC01002052230020542300206C
S315080019101000002064B700082C00002080B596B09F
S3150800192000AF07F1140344220021184608F0A0FF6F
S315080019303B4600221A605A609A60DA601A614FF4D0
S31508001940007001F025FE0346002B01D000F0BCFA1A
S3150800195010237B610123FB6200233B6360237B63C7
S315080019600223FB6301233B6401237B641423BB64CA
S315080019700723FB6402233B6502237B6507F11403F7
S31508001980184601F05BFE0346002B01D000F09CFAD6
S315080019900F233B6003237B600023BB600023FB60AF
S315080019A000233B613B460221184602F023FA034610
S315080019B0002B01D000F088FA00BF5837BD4680BD1D
S315080019C080B500AF1B4B1C4A1A601A4B1B4A5A605B
S315080019D0184B00229A60174B0122DA60154B002239
S315080019E01A61144B00225A61124B00229A61114B5C
S315080019F00022DA610F4B00221A620E4801F054F9F0
S31508001A000346002B01D000F05FFA0021094801F0D7
S31508001A1019FD0346002B01D000F056FA00210548AF
S31508001A2001F05BFD0346002B01D000F04DFA00BF24
S31508001A3080BD00BFE800002000540040E39BD000B2
S31508001A4080B500AF1B4B1C4A1A601A4B4FF48272C2
S31508001A505A60184B00229A60164B4FF4E062DA601F
S31508001A60144B00221A61134B00225A61114B4FF492
S31508001A7000729A610F4B0022DA610E4B00221A623D
S31508001A800C4B00225A620B4B00229A62094B072222
S31508001A90DA62084B00221A63064B08225A63054885
S31508001AA003F088F80346002B01D000F00DFA00BFBA
S31508001AB080BD00BF3C0100200038004080B588B0DA
S31508001AC000AF07F1140300221A605A609A603B1DA2
S31508001AD000221A605A609A60DA60234B234A1A6019
S31508001AE0214B4F225A60204B00229A601E4B4FF61C
S31508001AF0FE72DA601C4B00221A611B4B00225A61E7
S31508001B00194B00229A61184803F0F0FD0346002B92
S31508001B1001D000F0D9F900237B610023BB610023C3
S31508001B20FB6107F1140319460F4804F081FB0346CD
S31508001B30002B01D000F0C8F900237B600123BB60AD
S31508001B400023FB6000233B613B1D00221946064823
S31508001B5004F075F80346002B01D000F0B5F900BF74
S31508001B602037BD4680BD00BFA0010020002C0140E3
S31508001B7080B500AF144B154A1A60134B4FF4E13287
S31508001B805A60114B00229A600F4B0022DA600E4B06
S31508001B9000221A610C4B0C225A610B4B00229A61E7
S31508001BA0094B0022DA61084B00221A62064B002212
S31508001BB05A62054804F0E2FB0346002B01D000F008
S31508001BC083F900BF80BD00BFEC010020004400403F
S31508001BD080B588B000AF07F10C0300221A605A607E
S31508001BE09A60DA601A61314BDB6C304A43F00403C1
S31508001BF0D3642E4BDB6C03F00403BB60BB682B4B32
S31508001C00DB6C2A4A43F00103D364284BDB6C03F0F0
S31508001C1001037B607B68254BDB6C244A43F0020397
S31508001C20D364224BDB6C03F002033B603B68002263
S31508001C3002211F4801F020F800224FF400411D48F8
S31508001C4001F01AF80223FB6001233B6100237B6144
S31508001C500023BB6107F10C031946154800F062FE24
S31508001C604FF40043FB6001233B6100237B610023A3
S31508001C70BB6107F10C0319460E4800F053FE4FF4FA
S31508001C808073FB6002233B6100237B610023BB61F9
S31508001C900123FB6107F10C0319464FF0904000F051
S31508001CA041FE00BF2037BD4680BD00BF0010024080
S31508001CB0000800480004004880B584B000AF01223F
S31508001CC04749484807F04EFB03461A46464B1A70E2
S31508001CD0454B1B78002B05D0434B1B7819464348C8
S31508001CE008F05CFC424808F0C1FC3A1D3B46194620
S31508001CF03B4808F0E0F87B68DB69023B7A68528962
S31508001D0002FB03F31846FEF727FD4FF00002394B96
S31508001D10FEF7B6FA02460B4610461946FEF796FD3A
S31508001D200346FB607B685B891A463B6802FB03F344
S31508001D301846FEF711FD4FF000022E4BFEF7A0FAEB
S31508001D4002460B4610461946FEF780FD0346BB6061
S31508001D50BA68F968284808F021FC0B222749284860
S31508001D6007F046FB03461A461F4B1A701E4B1B7894
S31508001D70002B05D01C4B1B781946224808F00EFC90
S31508001D80214808F073FC1E49204808F0FEF91C4853
S31508001D9008F067F801221949194807F029FB034694
S31508001DA01A46114B1A70104B1B78002B05D00E4B98
S31508001DB01B781946164808F0F1FB114A64211548A4
S31508001DC008F02EF91349144808F0E8FB0C4808F007
S31508001DD048F8124808F04AFC00BF1037BD4680BDD7
S31508001DE078B7000874020020DC2200207CB70008BF
S31508001DF098B700080000E03FBCB70008ECB7000839
S31508001E00AC120020F8B700081CB8000830B8000863
S31508001E1060B80008E02200207CB800088CB80008EA
S31508001E2080B590B000AF786007F10C037A680D4969
S31508001E30184608F023FC32220B490C4807F0D8FA5A
S31508001E4003461A460A4B1A7007F10C030749184647
S31508001E5008F09BF9054808F004F800BF4037BD466E
S31508001E6080BD00BFB4B80008ECB70008AC1200206B
S31508001E70DC22002080B590B000AF786007F10C0333
S31508001E807A680D49184608F0F9FB32220B490C48C6
S31508001E9007F0AEFA03461A460A4B1A7007F10C0306
S31508001EA00749184608F071F9054807F0DAFF00BF38
S31508001EB04037BD4680BD00BFD8B80008ECB700085B
S31508001EC0AC120020DC22002080B400AF72B600BF3E
S31508001ED000BFFDE780B582B000AF0023FB711DE0AF
S31508001EE0FB79503BDBB21A460021782000F0A8F8AF
S31508001EF000220021782000F0A3F810220021782083
S31508001F0000F09EF8FB79DB01084A1A448023402139
S31508001F10782000F02FF8FB790133FB71FB79072B4A
S31508001F20DED900BF00BF0837BD4680BD5823002054
S31508001F3080B582B000AF0346FB71FB79002B01D157
S31508001F40002300E0FF234FF480621946034808F097
S31508001F508FFC00BF0837BD4680BD00BF5823002050
S31508001F6080B500AF0020FFF7E3FFFFF7B3FF00BF20
S31508001F7080BD000090B5C7B002AF0446084607F515
S31508001F808871A1F588710A60194607F58873A3F266
S31508001F90091322461A7007F58873A3F58573024656
S31508001FA01A7007F58873A3F586730A461A8007F52B
S31508001FB08873A3F5827307F58872A2F5857212787D
S31508001FC01A70002387F80F3115E097F80F3107F5D7
S31508001FD08872A2F5887212681A4497F80F3101338D
S31508001FE0117807F58872A2F58272D15497F80F31E5
S31508001FF0013387F80F3197F80F319BB207F58872CE
S31508002000A2F5867212889A42DFD807F58873A3F27A
S3150800201009131B7899B207F58873A3F586731B888D
S3150800202001339BB207F10C020A200090034800F026
S31508002030D7FE00BF07F58A77BD4690BDE8000020A9
S3150800204080B586B002AF0346FB710B46BB711346DB
S315080020507B71BB793B737B797B73FB7999B207F10B
S315080020600C020A2300930223034800F0B9FE00BFBE
S315080020701037BD4680BD00BFE800002080B483B09D
S3150800208000AF0F4B1B6E0E4A43F0010313660C4B51
S315080020901B6E03F001037B607B68094B9B6D084A46
S315080020A043F080539365064B9B6D03F080533B606A
S315080020B03B6800BF0C37BD465DF8047B704700BF20
S315080020C00010024080B5ACB000AF786007F19C0301
S315080020D000221A605A609A60DA601A6107F11403DE
S315080020E088220021184608F0C3FB7B681B68214A32
S315080020F093423AD140237B6100237B6607F11403A0
S31508002100184602F09BF80346002B01D0FFF7DCFEC9
S31508002110194BDB6C184A43F00203D364164BDB6C8D
S3150800212003F002033B613B69C023C7F89C301223C6
S31508002130C7F8A0300023C7F8A4300323C7F8A8308F
S315080021400423C7F8AC3007F19C0319460B4800F086
S31508002150E9FB094B9B6D084A43F400139365064B4C
S315080021609B6D03F40013FB60FB6800BFB037BD46E8
S3150800217080BD00BF00540040001002400004004823
S3150800218080B58AB000AF786007F1140300221A60A0
S315080021905A609A60DA601A617B681B68254A93421E
S315080021A044D1254B9B6D244A43F480439365224BC7
S315080021B09B6D03F480433B613B691F4BDB6C1E4AF6
S315080021C043F00403D3641C4BDB6C03F00403FB608D
S315080021D0FB68194BDB6C184A43F00203D364164BB1
S315080021E0DB6C03F00203BB60BB680C237B61022334
S315080021F0BB610023FB6103233B6205237B6207F176
S31508002200140319460D4800F08DFB4FF480637B617B
S315080022100223BB610023FB6103233B6205237B6228
S3150800222007F114031946064800F07CFB00BF28375F
S31508002230BD4680BD00380040001002400008004836
S315080022400004004880B58AB000AF786007F114032F
S3150800225000221A605A609A60DA601A617B681B6805
S315080022601C4A934231D11C4B1B6E1B4A43F4006334
S315080022701366194B1B6E03F400633B613B69164BEF
S31508002280DB6C154A43F00103D364134BDB6C03F094
S315080022900103FB60FB684FF480737B610223BB611B
S315080022A00023FB6100233B6201237B6207F11403D1
S315080022B019464FF0904000F035FB002200211B2004
S315080022C000F0F9FA1B2000F012FB00BF2837BD46C4
S315080022D080BD00BF002C01400010024080B5ACB0A4
S315080022E000AF786007F19C0300221A605A609A6072
S315080022F0DA601A6107F1140388220021184608F0EB
S31508002300B7FA7B681B68214A93423BD102237B615B
S3150800231000233B6507F11403184601F08FFF0346B7
S31508002320002B01D0FFF7D0FD194B9B6D184A43F4DB
S3150800233000339365164B9B6D03F400333B613B6991
S31508002340134BDB6C124A43F00103D364104BDB6C6E
S3150800235003F00103FB60FB680C23C7F89C300223DB
S31508002360C7F8A0300023C7F8A4300323C7F8A8305D
S315080023700723C7F8AC3007F19C0319464FF0904085
S3150800238000F0D0FA00BFB037BD4680BD004400401B
S315080023900010024080B400AF00BFFDE780B400AF74
S315080023A000BFFDE780B400AF00BFFDE780B400AF13
S315080023B000BFFDE780B400AF00BFFDE780B400AF03
S315080023C000BFBD465DF8047B704780B400AF00BF10
S315080023D0BD465DF8047B704780B400AF00BFBD46BC
S315080023E05DF8047B7047000080B500AF0B4B1B8877
S315080023F0002B05D0094B1B88013B9AB2074B1A8064
S31508002400074B1B88002B05D0054B1B88013B9AB24E
S31508002410034B1A8000F030F900BF80BDE0000020B1
S31508002420E200002080B500AF024803F001FB00BFC0
S3150800243080BD00BFA001002080B586B000AFF8605F
S31508002440B9607A6000237B610AE0AFF30080014639
S31508002450BB685A1CBA60CAB21A707B6901337B61C1
S315080024607A697B689A42F0DB7B6818461837BD465E
S3150800247080BD80B483B000AF78604FF0FF33184654
S315080024800C37BD465DF8047B704780B483B000AF57
S31508002490786039603B684FF400525A60002318464A
S315080024A00C37BD465DF8047B704780B483B000AF37
S315080024B07860012318460C37BD465DF8047B7047E3
S315080024C080B485B000AFF860B9607A60002318461A
S315080024D01437BD465DF8047B7047000080B586B0AA
S315080024E000AF7860144A154BD31A7B617B693B6150
S315080024F0134B1B68002B02D1114B124A1A60104B62
S315080025001A687B6813443A699A4207D208F0FEF9BA
S3150800251003460C221A604FF0FF3309E0084B1B688C
S31508002520FB60074B1A687B681344054A1360FB680F
S3150800253018461837BD4680BD0080012000040000FB
S3150800254058270020E82A002080B400AF064BD3F8AD
S315080025508830054A43F47003C2F8883000BFBD4688
S315080025605DF8047B704700BF00ED00E0DFF834D06B
S31508002570FFF7EAFF0C480D490D4A002302E0D4583C
S31508002580C4500433C4188C42F9D30A4A0A4C0023AF
S3150800259001E013600432A242FBD308F0BDF9FFF74D
S315080025A029F9FEE70080012000000020C400002071
S315080025B034BE0008C4000020E82A0020FEE7000018
S315080025C080B582B000AF0023FB710C4B1B680B4A29
S315080025D043F480731360032000F062F9002000F0D2
S315080025E00FF80346002B02D00123FB7101E0FFF729
S315080025F045FDFB7918460837BD4680BD00200240D8
S3150800260080B584B000AF78600023FB73174B1B7846
S31508002610002B23D0164B1A68144B1B7819464FF417
S315080026207A73B3FBF1F3B2FBF3F3184600F06DF9D6
S315080026300346002B0FD17B680F2B09D80022796837
S315080026404FF0FF3000F037F90A4A7B68136007E05D
S315080026500123FB7304E00123FB7301E00123FB73F1
S31508002660FB7B18461037BD4680BD00BF50000020D2
S31508002670480000204C00002080B400AF064B1B78B1
S315080026801A46064B1B681344044A136000BFBD462E
S315080026905DF8047B704700BF500000205C270020CF
S315080026A080B400AF034B1B681846BD465DF8047B33
S315080026B0704700BF5C27002080B584B000AF786003
S315080026C0FFF7EEFFB8607B68FB60FB68B3F1FF3F7E
S315080026D005D00A4B1B781A46FB681344FB6000BFFB
S315080026E0FFF7DEFF0246BB68D31AFA689A42F7D8A4
S315080026F000BF00BF1037BD4680BD00BF5000002098
S3150800270080B485B000AF78607B6803F00703FB6090
S315080027100C4BDB68BB60BA684FF6FF031340BB601F
S31508002720FB681A02BB68134343F0BF6343F40033E4
S31508002730BB60044ABB68D36000BF1437BD465DF86A
S31508002740047B704700ED00E080B400AF044BDB6803
S315080027501B0A03F007031846BD465DF8047B70475D
S3150800276000ED00E080B483B000AF0346FB7197F933
S315080027700730002B0BDBFB7903F01F02074997F99B
S3150800278007305B09012000FA02F241F8232000BF56
S315080027900C37BD465DF8047B704700BF00E100E0DA
S315080027A080B483B000AF03463960FB7197F90730F0
S315080027B0002B0ADB3B68DAB20C4997F9073012019D
S315080027C0D2B20B4483F800230AE03B68DAB2084920
S315080027D0FB7903F00F03043B1201D2B20B441A76BD
S315080027E000BF0C37BD465DF8047B704700E100E08A
S315080027F000ED00E080B489B000AFF860B9607A6097
S31508002800FB6803F00703FB61FB69C3F10703042BAD
S3150800281028BF0423BB61FB690433062B02D9FB6975
S31508002820033B00E000237B614FF0FF32BB6902FAED
S3150800283003F3DA43BB681A407B699A404FF0FF31CD
S315080028407B6901FA03F3D9437B680B4013431846A7
S315080028502437BD465DF8047B7047000080B582B01A
S3150800286000AF78607B68013BB3F1807F01D3012319
S315080028700FE00A4A7B68013B53600F214FF0FF3097
S31508002880FFF78EFF054B00229A60044B07221A6059
S31508002890002318460837BD4680BD00BF10E000E09B
S315080028A080B582B000AF78607868FFF729FF00BF6F
S315080028B00837BD4680BD80B586B000AF0346B9600F
S315080028C07A60FB7300237B61FFF73EFF78617A68C5
S315080028D0B9687869FFF78EFF024697F90F301146F7
S315080028E01846FFF75DFF00BF1837BD4680BD80B5A7
S315080028F082B000AF0346FB7197F907301846FFF719
S3150800290031FF00BF0837BD4680BD80B582B000AF35
S3150800291078607868FFF7A2FF034618460837BD4671
S3150800292080BD000080B487B000AF786039600023AE
S315080029307B617FE13B681A6801217B6901FA03F331
S315080029401340FB60FB68002B00F071813B685B68F5
S3150800295003F00303012B05D03B685B6803F0030310
S31508002960022B30D17B689B683B617B695B00032245
S3150800297002FA03F3DB433A6913403B613B68DA68C2
S315080029807B695B0002FA03F33A6913433B617B6890
S315080029903A699A607B685B683B6101227B6902FA47
S315080029A003F3DB433A6913403B613B685B681B09E9
S315080029B003F001027B6902FA03F33A6913433B61A8
S315080029C07B683A695A603B685B6803F00303032B2C
S315080029D018D17B68DB6A3B6101227B6902FA03F343
S315080029E0DB433A6913403B613B685B68DB0803F0ED
S315080029F001027B6902FA03F33A6913433B617B6878
S31508002A003A69DA623B685B6803F00303032B17D065
S31508002A107B68DB683B617B695B00032202FA03F390
S31508002A20DB433A6913403B613B689A687B695B0004
S31508002A3002FA03F33A6913433B617B683A69DA6041
S31508002A403B685B6803F00303022B23D17B69DA0832
S31508002A507B68083253F822303B617B6903F0070331
S31508002A609B000F2202FA03F3DB433A6913403B61EA
S31508002A703B681A697B6903F007039B0002FA03F3B4
S31508002A803A6913433B617B69DA087B68083239691E
S31508002A9043F822107B681B683B617B695B00032255
S31508002AA002FA03F3DB433A6913403B613B685B6810
S31508002AB003F003027B695B0002FA03F33A691343E6
S31508002AC03B617B683A691A603B685B6803F440338C
S31508002AD0002B00F0AC805F4B1B6E5E4A43F001038F
S31508002AE013665C4B1B6E03F00103BB60BB685A4A56
S31508002AF07B699B08023352F823303B617B6903F0FC
S31508002B0003039B000F2202FA03F3DB433A691340DF
S31508002B103B617B68B3F1904F25D07B684F4A93425F
S31508002B201FD07B684E4A934219D07B684D4A934220
S31508002B3013D07B684C4A93420DD07B684B4A93422C
S31508002B4007D07B684A4A934201D106230CE0072343
S31508002B500AE0052308E0042306E0032304E0022331
S31508002B6002E0012300E000237A6902F003029200E2
S31508002B7093403A6913433B6137497B699B080233A3
S31508002B803A6941F823203B4B9B683B61FB68DB4372
S31508002B903A6913403B613B685B6803F48013002B7A
S31508002BA003D03A69FB6813433B61324A3B69936039
S31508002BB0304BDB683B61FB68DB433A6913403B619A
S31508002BC03B685B6803F40013002B03D03A69FB6883
S31508002BD013433B61274A3B69D360264B5B683B61DD
S31508002BE0FB68DB433A6913403B613B685B6803F467
S31508002BF00033002B03D03A69FB6813433B611D4A37
S31508002C003B6953601B4B1B683B61FB68DB433A69B6
S31508002C1013403B613B685B6803F48033002B03D0A9
S31508002C203A69FB6813433B61124A3B6913607B6947
S31508002C3001337B613B681A687B6922FA03F3002B30
S31508002C407FF478AE00BF00BF1C37BD465DF8047B35
S31508002C50704700BF00100240000001400004004811
S31508002C6000080048000C00480010004800140048FE
S31508002C70001800480004014080B483B000AF7860B3
S31508002C800B467B8013467B707B78002B03D07A88B3
S31508002C907B689A6102E07A887B689A6200BF0C3783
S31508002CA0BD465DF8047B704780B582B000AF78609A
S31508002CB07B68002B01D101238DE07B6893F84130B6
S31508002CC0DBB2002B06D17B68002283F840207868A7
S31508002CD0FFF7F8F97B68242283F841207B681B6894
S31508002CE01A687B681B6822F001021A607B685A68BA
S31508002CF07B681B6822F070621A617B681B689A6899
S31508002D007B681B6822F400429A607B68DB68012BAB
S31508002D1007D17B689A687B681B6842F400429A6010
S31508002D2006E07B689A687B681B6842F404429A60EE
S31508002D307B68DB68022B08D17B681B685A687B684E
S31508002D401B6842F400625A6007E07B681B685A6891
S31508002D507B681B6822F400625A607B681B685B68A4
S31508002D607A68126843F0007343F4004353607B6843
S31508002D701B68DA687B681B6822F40042DA607B68A5
S31508002D801A697B685B6942EA03017B689B691A02D8
S31508002D907B681B680A43DA607B68D9697B681A6AAC
S31508002DA07B681B680A431A607B681B681A687B681D
S31508002DB01B6842F001021A607B6800225A647B682D
S31508002DC0202283F841207B6800221A637B68002250
S31508002DD083F84220002318460837BD4680BD000008
S31508002DE080B588B002AFF8607A601A460B467B81D8
S31508002DF013463B81FB6893F84130DBB2202B40F049
S31508002E00FD80FB6893F84030012B01D10223F6E0E0
S31508002E10FB68012283F84020FFF742FC38613B69D2
S31508002E200093192301224FF40041F86800F014F9C1
S31508002E300346002B01D00123E1E0FB68212283F839
S31508002E404120FB68102283F84220FB6800225A645E
S31508002E50FB687A685A62FB683A895A85FB680022D9
S31508002E605A63FB685B8D9BB2FF2B06D9FB68FF2272
S31508002E701A854FF080737B6107E0FB685B8D9AB219
S31508002E80FB681A854FF000737B61FB681B8D002B6E
S31508002E9024D0FB685B6A1A78FB681B689A62FB6831
S31508002EA05B6A5A1CFB685A62FB685B8D9BB2013BE6
S31508002EB09AB2FB685A85FB681B8D013B9AB2FB6880
S31508002EC01A85FB681B8DDBB20133DAB279894E4B62
S31508002ED000937B69F86800F083FA66E0FB681B8D4F
S31508002EE0DAB27989484B00937B69F86800F078FA7A
S31508002EF05BE03A69396AF86800F007F90346002B7F
S31508002F0001D001237BE0FB685B6A1A78FB681B68C3
S31508002F109A62FB685B6A5A1CFB685A62FB685B8D9F
S31508002F209BB2013B9AB2FB685A85FB681B8D013B35
S31508002F309AB2FB681A85FB685B8D9BB2002B34D06E
S31508002F40FB681B8D002B30D13B6900933B6A00223E
S31508002F508021F86800F080F80346002B01D0012391
S31508002F604DE0FB685B8D9BB2FF2B0ED9FB68FF22F9
S31508002F701A85FB681B8DDAB27989002300934FF016
S31508002F808073F86800F02CFA0FE0FB685B8D9AB244
S31508002F90FB681A85FB681B8DDAB2798900230093D2
S31508002FA04FF00073F86800F01BFAFB685B8D9BB264
S31508002FB0002B9ED13A69396AF86800F0EDF80346A5
S31508002FC0002B01D001231AE0FB681B682022DA6176
S31508002FD0FB681B685968FB681A680C4B0B40536002
S31508002FE0FB68202283F84120FB68002283F84220F0
S31508002FF0FB68002283F84020002300E002231846DD
S315080030001837BD4680BD00BF0020008000E800FEDE
S3150800301080B483B000AF78607B681B689B6903F057
S315080030200203022B03D17B681B6800229A627B6825
S315080030301B689B6903F00103012B07D07B681B689B
S315080030409A697B681B6842F001029A6100BF0C37D7
S31508003050BD465DF8047B704780B584B000AFF86064
S31508003060B9603B601346FB713BE0BA693968F8689A
S3150800307000F0D6F80346002B01D0012341E03B6857
S31508003080B3F1FF3F2DD0FFF70BFB0246BB69D31AFE
S315080030903A689A4202D33B68002B22D1FB681B6828
S315080030A09A69BB681340BA689A420CBF0123002389
S315080030B0DBB21A46FB799A4213D1FB685B6C43F084
S315080030C02002FB685A64FB68202283F84120FB68CB
S315080030D0002283F84220FB68002283F8402001235F
S315080030E00FE0FB681B689A69BB681340BA689A4286
S315080030F00CBF01230023DBB21A46FB799A42B4D0EF
S31508003100002318461037BD4680BD80B584B000AF91
S31508003110F860B9607A6033E07A68B968F86800F0F0
S315080031207FF80346002B01D0012331E0BB68B3F1D9
S31508003130FF3F25D0FFF7B4FA02467B68D31ABA6870
S315080031409A4202D3BB68002B1AD1FB681B689B699D
S3150800315003F00203022B13D0FB685B6C43F02002DA
S31508003160FB685A64FB68202283F84120FB6800222A
S3150800317083F84220FB68002283F84020012307E0F9
S31508003180FB681B689B6903F00203022BC4D100236A
S3150800319018461037BD4680BD80B584B000AFF860CC
S315080031A0B9607A602FE07A68B968F86800F038F88C
S315080031B00346002B01D001232DE0FFF771FA0246E2
S315080031C07B68D31ABA689A4202D3BB68002B1AD115
S315080031D0FB681B689B6903F02003202B13D0FB6850
S315080031E05B6C43F02002FB685A64FB68202283F874
S315080031F04120FB68002283F84220FB68002283F8FE
S315080032004020012307E0FB681B689B6903F0200345
S31508003210202BC8D1002318461037BD4680BD0000B4
S3150800322080B58AB000AFF860B9607A60002387F885
S315080032302730FB681B689B69BB6100233B627B6880
S31508003240FB61BB6903F01003002B68D0FB681B68A1
S315080032501022DA6149E0BB68B3F1FF3F45D0FFF7BA
S315080032601FFA0246FB69D31ABA689A4202D3BB68A8
S31508003270002B3AD1FB681B685B6803F480437B61CB
S31508003280FB6893F84230FB74FB681B689B6903F480
S315080032900043B3F5004F21D17B69B3F5804F1DD0AC
S315080032A0FB7C202B1AD0FB681B685A68FB681B68D6
S315080032B042F480425A60FFF7F3F9F8610EE0FFF72F
S315080032C0EFF90246FB69D31A192B07D93B6A43F073
S315080032D020033B62012387F8273006E0FB681B685A
S315080032E09B6903F02003202BE9D1FB681B689B69C7
S315080032F003F02003202B03D097F82730002BAAD001
S3150800330097F82730002B03D1FB681B682022DA6167
S315080033103B6A43F004033B62012387F82730FB68C6
S315080033201B689B69BB61BB6903F48073002B0BD0D8
S315080033303B6A43F001033B62FB681B684FF48072EB
S31508003340DA61012387F82730BB6903F48063002B11
S315080033500BD03B6A43F008033B62FB681B684FF4DB
S315080033608062DA61012387F82730BB6903F40073AA
S31508003370002B0BD03B6A43F002033B62FB681B68D9
S315080033804FF40072DA61012387F8273097F827305F
S31508003390002B1CD0F868FFF73BFEFB681B685968D2
S315080033A0FB681A680D4B0B405360FB685A6C3B6A06
S315080033B01A43FB685A64FB68202283F84120FB689D
S315080033C0002283F84220FB68002283F8402097F801
S315080033D0273018462837BD4680BD00BF00E800FEE6
S315080033E080B487B000AFF8607B600B467B811346DC
S315080033F07B727B89C3F309027B7A1B0403F47F0380
S315080034001A437B681A433B6A134323F000437B61E4
S31508003410FB681B685A683B6A5B0D03F48061084BBE
S315080034200B43DB4302EA0301FB681B687A690A431C
S315080034305A6000BF1C37BD465DF8047B704700BF65
S31508003440FF63FF0380B483B000AF786039607B68A0
S3150800345093F84130DBB2202B38D17B6893F84030A3
S31508003460012B01D1022332E07B68012283F8402038
S315080034707B68242283F841207B681B681A687B686E
S315080034801B6822F001021A607B681B681A687B6851
S315080034901B6822F480521A607B681B6819687B686F
S315080034A01B683A680A431A607B681B681A687B6857
S315080034B01B6842F001021A607B68202283F84120CB
S315080034C07B68002283F84020002300E00223184688
S315080034D00C37BD465DF8047B704780B485B000AFF5
S315080034E0786039607B6893F84130DBB2202B39D19C
S315080034F07B6893F84030012B01D1022333E07B68C7
S31508003500012283F840207B68242283F841207B68C7
S315080035101B681A687B681B6822F001021A607B68C0
S315080035201B681B68FB60FB6823F47063FB603B68E1
S315080035301B02FA681343FB607B681B68FA681A600B
S315080035407B681B681A687B681B6842F001021A6070
S315080035507B68202283F841207B68002283F840207C
S31508003560002300E0022318461437BD465DF8047BA5
S315080035707047000080B400AF044B1B6803F4C063B7
S315080035801846BD465DF8047B704700BF00700040D2
S3150800359080B485B000AF78607B68B3F5007F30D122
S315080035A0234B1B6803F4C063B3F5007F38D0204B68
S315080035B01B6823F4C0631E4A43F4007313601D4B53
S315080035C01B68322202FB03F31B4AA2FB03239B0C54
S315080035D00133FB6002E0FB68013BFB60144B5B694F
S315080035E003F48063B3F5806F02D1FB68002BF2D138
S315080035F00F4B5B6903F48063B3F5806F10D1032327
S315080036000FE00B4B1B6803F4C063B3F5806F07D05C
S31508003610074B1B6823F4C063054A43F480631360B1
S31508003620002318461437BD465DF8047B704700BF73
S31508003630007000404800002083DE1B4380B588B038
S3150800364000AF78607B68002B01D10123CAE3974B52
S315080036509B6803F00C03BB61944BDB6803F0030320
S315080036607B617B681B6803F01003002B00F0E48085
S31508003670BB69002B07D0BB690C2B40F08B807B699C
S31508003680012B40F08780894B1B6803F00203002B4F
S3150800369005D07B689B69002B01D10123A2E37B68D7
S315080036A01A6A824B1B6803F00803002B04D07F4B71
S315080036B01B6803F0F00305E07C4BD3F894301B0934
S315080036C003F0F003934223D27B681B6A184600F086
S315080036D055FD0346002B01D0012383E3734B1B687A
S315080036E0724A43F008031360704B1B6823F0F0021C
S315080036F07B681B6A6D4913430B606C4B5B6823F44C
S315080037007F427B68DB691B02684913434B6025E0EF
S31508003710664B1B68654A43F008031360634B1B68D6
S3150800372023F0F0027B681B6A604913430B605F4B0A
S315080037305B6823F47F427B68DB691B025B491343A2
S315080037404B60BB69002B09D17B681B6A184600F0E1
S3150800375015FD0346002B01D0012343E300F04AFC84
S315080037600246524B9B681B0903F00F035049CB5C7A
S3150800377003F01F0322FA03F34E4A13604E4B1B68ED
S315080037801846FEF73DFF0346FB73FB7B002B52D022
S31508003790FB7B27E37B689B69002B32D0434B1B6876
S315080037A0424A43F001031360FEF77AFF386108E0E6
S315080037B0FEF776FF02463B69D31A022B01D903238B
S315080037C010E33A4B1B6803F00203002BF0D0374B8B
S315080037D01B68364A43F008031360344B1B6823F012
S315080037E0F0027B681B6A314913430B602F4B5B68F9
S315080037F023F47F427B68DB691B022C4913434B6029
S315080038001AE02A4B1B68294A23F001031360FEF7C6
S3150800381047FF386108E0FEF743FF02463B69D31AC3
S31508003820022B01D90323DDE2204B1B6803F00203B8
S31508003830002BF0D100E000BF7B681B6803F0010392
S31508003840002B74D0BB69082B05D0BB690C2B0ED195
S315080038507B69032B0BD1154B1B6803F40033002B34
S3150800386064D07B685B68002B60D10123BAE27B6871
S315080038705B68B3F5803F06D10C4B1B680B4A43F4D3
S315080038808033136026E07B685B68B3F5A02F15D1FB
S31508003890064B1B68054A43F480231360034B1B68D9
S315080038A0024A43F48033136014E000BF001002405C
S315080038B068B90008480000204C000020A04B1B688F
S315080038C09F4A23F4803313609D4B1B689C4A23F45C
S315080038D0802313607B685B68002B13D0FEF7E0FE3D
S315080038E0386108E0FEF7DCFE02463B69D31A642B12
S315080038F001D9032376E2924B1B6803F40033002BAD
S31508003900F0D014E0FEF7CCFE386108E0FEF7C8FEFA
S3150800391002463B69D31A642B01D9032362E2884B1A
S315080039201B6803F40033002BF0D100E000BF7B686E
S315080039301B6803F00203002B60D0BB69042B05D07B
S31508003940BB690C2B19D17B69022B16D17C4B1B68E2
S3150800395003F48063002B05D07B68DB68002B01D15C
S3150800396001233FE2764B5B6823F0F8527B681B69BC
S315080039701B06734913434B6040E07B68DB68002BEA
S3150800398023D06F4B1B686E4A43F480731360FEF7AF
S3150800399087FE386108E0FEF783FE02463B69D31AC4
S315080039A0022B01D903231DE2654B1B6803F48063D0
S315080039B0002BF0D0624B5B6823F0F8527B681B69DA
S315080039C01B065F4913434B6018E05D4B1B685C4A56
S315080039D023F480731360FEF763FE386108E0FEF790
S315080039E05FFE02463B69D31A022B01D90323F9E18C
S315080039F0534B1B6803F48063002BF0D17B681B686C
S31508003A0003F00803002B3CD07B685B69002B1CD0B5
S31508003A104B4BD3F894304A4A43F00103C2F894302A
S31508003A20FEF73EFE386108E0FEF73AFE02463B69BD
S31508003A30D31A022B01D90323D4E1414BD3F894308E
S31508003A4003F00203002BEFD01BE03D4BD3F8943074
S31508003A503B4A23F00103C2F89430FEF721FE386191
S31508003A6008E0FEF71DFE02463B69D31A022B01D970
S31508003A700323B7E1324BD3F8943003F00203002B4B
S31508003A80EFD17B681B6803F00403002B00F0A680C7
S31508003A900023FB772A4B9B6D03F08053002B0DD137
S31508003AA0274B9B6D264A43F080539365244B9B6DA9
S31508003AB003F08053BB60BB680123FB77214B1B686F
S31508003AC003F48073002B18D11E4B1B681D4A43F460
S31508003AD080731360FEF7E4FD386108E0FEF7E0FD49
S31508003AE002463B69D31A022B01D903237AE1154B07
S31508003AF01B6803F48073002BF0D07B689B68012B4E
S31508003B0008D10F4BD3F890300D4A43F00103C2F8A1
S31508003B10903029E07B689B68052B15D1084BD3F8B4
S31508003B209030074A43F00403C2F89030044BD3F8A8
S31508003B309030034A43F00103C2F8903014E000BF06
S31508003B4000100240007000409C4BD3F890309B4A0E
S31508003B5023F00103C2F89030984BD3F89030974A77
S31508003B6023F00403C2F890307B689B68002B16D0BC
S31508003B70FEF796FD38610AE0FEF792FD02463B69BC
S31508003B80D31A41F28832934201D903232AE18B4B97
S31508003B90D3F8903003F00203002BEDD015E0FEF7C2
S31508003BA07FFD38610AE0FEF77BFD02463B69D31AC2
S31508003BB041F28832934201D9032313E17F4BD3F8AC
S31508003BC0903003F00203002BEDD1FB7F012B05D1CA
S31508003BD07A4B9B6D794A23F0805393657B689B6A81
S31508003BE0002B00F0FE807B689B6A022B40F0D08099
S31508003BF0724BDB687B617B6903F003027B68DB6AD7
S31508003C009A4230D17B6903F070027B681B6B013BDB
S31508003C101B019A4227D17B6903F4FE427B685B6BE2
S31508003C201B029A421FD17B6903F400337A68926BB0
S31508003C30072A14BF01220022D2B2934213D17B690C
S31508003C4003F4C0027B68DB6B5B08013B5B059A42A9
S31508003C5009D17B6903F0C0627B681B6C5B08013B7A
S31508003C605B069A426ED0BB690C2B69D0534B1B6816
S31508003C7003F08063002B05D1504B1B6803F080537B
S31508003C80002B01D00123ADE04C4B1B684B4A23F0B7
S31508003C9080731360FEF704FD386108E0FEF700FD47
S31508003CA002463B69D31A022B01D903239AE0434BF8
S31508003CB01B6803F00073002BF0D1404BDA68404BC9
S31508003CC013407A68D16A7A68126B013A1201114375
S31508003CD07A68526B120211437A68D26B5208013A1B
S31508003CE0520511437A68126C5208013A520611437A
S31508003CF07A68926B120952040A4330491343CB601F
S31508003D002E4B1B682D4A43F0807313602B4BDB68E0
S31508003D102A4A43F08073D360FEF7C2FC386108E094
S31508003D20FEF7BEFC02463B69D31A022B01D90323D0
S31508003D3058E0224B1B6803F00073002BF0D050E0CC
S31508003D4001234FE01D4B1B6803F00073002B48D17D
S31508003D501A4B1B68194A43F080731360174BDB68CC
S31508003D60164A43F08073D360FEF79AFC386108E080
S31508003D70FEF796FC02463B69D31A022B01D90323A8
S31508003D8030E00E4B1B6803F00073002BF0D028E0E0
S31508003D90BB690C2B23D0094B1B68084A23F0807398
S31508003DA01360FEF77DFC38610CE0FEF779FC0246ED
S31508003DB03B69D31A022B05D9032313E000100240EE
S31508003DC08C809DF9094B1B6803F00073002BECD11E
S31508003DD0064BDA680549064B1340CB6001E0012320
S31508003DE000E0002318462037BD4680BD001002407B
S31508003DF0FCFFEEFE80B584B000AF786039607B6862
S31508003E00002B01D10123E7E0754B1B6803F007037C
S31508003E103A689A4210D9724B1B6823F00702704918
S31508003E203B6813430B606E4B1B6803F007033A6845
S31508003E309A4201D00123CFE07B681B6803F0020396
S31508003E40002B10D07B689A68664B9B6803F0F003DA
S31508003E509A4208D9634B9B6823F0F0027B689B68FB
S31508003E60604913438B607B681B6803F00103002BD2
S31508003E704CD07B685B68032B07D15A4B1B6803F051
S31508003E800073002B21D10123A6E07B685B68022B17
S31508003E9007D1544B1B6803F40033002B15D10123BB
S31508003EA09AE07B685B68002B07D14E4B1B6803F0D2
S31508003EB00203002B09D101238EE04A4B1B6803F449
S31508003EC08063002B01D1012386E0464B9B6823F0D3
S31508003ED003027B685B68434913438B60FEF7E0FB8C
S31508003EE0F8600AE0FEF7DCFB0246FB68D31A41F2EB
S31508003EF08832934201D903236EE03A4B9B6803F05C
S31508003F000C027B685B689B009A42EBD17B681B6856
S31508003F1003F00203002B10D07B689A68314B9B682C
S31508003F2003F0F0039A4208D22E4B9B6823F0F00266
S31508003F307B689B682B4913438B60294B1B6803F0EE
S31508003F4007033A689A4210D2254B1B6823F00702EA
S31508003F5023493B6813430B60214B1B6803F0070397
S31508003F603A689A4201D0012336E07B681B6803F061
S31508003F700403002B08D01B4B9B6823F4E0627B6884
S31508003F80DB68184913438B607B681B6803F00803DA
S31508003F90002B09D0134B9B6823F460527B681B697E
S31508003FA0DB00104913438B6000F024F802460D4BE2
S31508003FB09B681B0903F00F030B49CB5C03F01F0337
S31508003FC022FA03F3094A1360094B1B681846FEF7E1
S31508003FD017FB0346FB72FB7A18461037BD4680BDB1
S31508003FE0002002400010024068B90008480000207E
S31508003FF04C00002080B489B000AF0023FB61002389
S31508004000BB613E4B9B6803F00C033B613B4BDB6893
S3150800401003F00303FB603B69002B05D03B690C2BBF
S3150800402021D1FB68012B1ED1344B1B6803F0080312
S31508004030002B07D1314BD3F894301B0A03F00F033A
S31508004040FB6105E02D4B1B681B0903F00F03FB61A1
S315080040502B4AFB6952F82330FB613B69002B0DD1D3
S31508004060FB69BB610AE03B69042B02D1254BBB61A6
S3150800407004E03B69082B01D1234BBB613B690C2B40
S3150800408034D11E4BDB6803F00303BB60BB68022B0D
S3150800409003D0BB68032B03D005E01A4B7B6105E010
S315080040A0194B7B6102E0FB697B6100BF134BDB6840
S315080040B01B0903F0070301337B60104BDB681B0AFF
S315080040C003F07F037A6903FB02F27B68B2FBF3F322
S315080040D07B610A4BDB685B0E03F0030301335B006D
S315080040E03B607A693B68B2FBF3F3BB61BB69184670
S315080040F02437BD465DF8047B704700BF00100240B8
S3150800410080B900080024F40000127A0080B400AFD9
S31508004110034B1B681846BD465DF8047B704700BF15
S315080041204800002080B500AFFFF7F0FF0246064BB7
S315080041309B681B0A03F007030449CB5C03F01F03C3
S3150800414022FA03F3184680BD0010024078B9000829
S3150800415080B500AFFFF7DAFF0246064B9B68DB0A1D
S3150800416003F007030449CB5C03F01F0322FA03F3A9
S31508004170184680BD0010024078B9000880B586B0A0
S3150800418000AF786000233B612A4B9B6D03F0805398
S31508004190002B03D0FFF7EEF9786114E0254B9B6DF1
S315080041A0244A43F080539365224B9B6D03F080535A
S315080041B0FB60FB68FFF7DEF978611E4B9B6D1D4AB5
S315080041C023F0805393657B69B3F5007F0BD17B6839
S315080041D0802B19D97B68A02B02D902233B6113E0F7
S315080041E001233B6110E07B68802B02D903233B61E6
S315080041F00AE07B68802B02D102233B6104E07B68DE
S31508004200702B01D101233B610B4B1B6823F007027E
S3150800421009493B6913430B60074B1B6803F0070307
S315080042203A699A4201D0012300E00023184618375C
S31508004230BD4680BD001002400020024080B586B011
S3150800424000AF78600023FB740023BB747B681B688F
S3150800425003F40063002B41D07B685B6EB3F5400F17
S315080042602AD0B3F5400F24D8B3F5000F08D0B3F51C
S31508004270000F1ED8002B0AD0B3F5800F10D018E017
S31508004280864BDB68854A43F48033D36015E07B6848
S3150800429004330021184600F0BBFA0346FB740CE011
S315080042A07B6820330021184600F0A6FB0346FB7402
S315080042B003E00123FB7400E000BFFB7C002B0BD15D
S315080042C0764BD3F8883023F440027B685B6E7349DB
S315080042D01343C1F8883001E0FB7CBB747B681B681C
S315080042E003F48053002B41D07B689B6EB3F1407F6B
S315080042F02AD0B3F1407F24D8B3F1007F08D0B3F1B8
S31508004300007F1ED8002B0AD0B3F1807F10D018E0AA
S31508004310624BDB68614A43F48033D36015E07B68FF
S3150800432004330021184600F073FA0346FB740CE0C8
S315080043307B6820330021184600F05EFB0346FB74B9
S3150800434003E00123FB7400E000BFFB7C002B0BD1CC
S31508004350524BD3F8883023F040727B689B6E4F49E6
S315080043601343C1F8883001E0FB7CBB747B681B688B
S3150800437003F40033002B00F0A08000237B74474B26
S315080043809B6D03F08053002B01D1012300E000232D
S31508004390002B0DD0414B9B6D404A43F080539365EB
S315080043A03E4B9B6D03F08053BB60BB6801237B7457
S315080043B03B4B1B683A4A43F480731360FEF770F967
S315080043C0F86009E0FEF76CF90246FB68D31A022B7F
S315080043D002D90323FB7405E0314B1B6803F4807391
S315080043E0002BEFD0FB7C002B5CD12C4BD3F8903004
S315080043F003F440737B617B69002B1FD07B68D3F87D
S3150800440084307A699A4219D0244BD3F8903023F431
S3150800441040737B61214BD3F89030204A43F48033B4
S31508004420C2F890301D4BD3F890301C4A23F48033E1
S31508004430C2F89030194A7B69C2F890307B6903F05C
S315080044400103002B16D0FEF72BF9F8600BE0FEF7F8
S3150800445027F90246FB68D31A41F28832934202D9F9
S315080044600323FB7406E00D4BD3F8903003F00203E8
S31508004470002BECD0FB7C002B0CD1084BD3F89030EA
S3150800448023F440727B68D3F8843004491343C1F897
S31508004490903009E0FB7CBB7406E000BF00100240C8
S315080044A000700040FB7CBB747B7C012B05D19E4BC6
S315080044B09B6D9D4A23F0805393657B681B6803F0C8
S315080044C00103002B0AD0984BD3F8883023F0030257
S315080044D07B689B6B94491343C1F888307B681B68DB
S315080044E003F00203002B0AD08F4BD3F8883023F051
S315080044F00C027B68DB6B8C491343C1F888307B68F8
S315080045001B6803F00403002B0AD0874BD3F88830C6
S3150800451023F030027B681B6C83491343C1F888304B
S315080045207B681B6803F00803002B0AD07E4BD3F880
S31508004530883023F0C0027B685B6C7B491343C1F863
S3150800454088307B681B6803F01003002B0AD0764B73
S31508004550D3F8883023F440727B689B6C7249134306
S31508004560C1F888307B681B6803F02003002B0AD04B
S315080045706D4BD3F8883023F440627B68DB6C6A495C
S315080045801343C1F888307B681B6803F40073002B5B
S315080045900AD0654BD3F8883023F440227B68DB6D5C
S315080045A061491343C1F888307B681B6803F480634C
S315080045B0002B0AD05C4BD3F8883023F440127B6872
S315080045C01B6E59491343C1F888307B681B6803F092
S315080045D04003002B0AD0544BD3F8883023F44052BA
S315080045E07B681B6D50491343C1F888307B681B688C
S315080045F003F08003002B0AD04B4BD3F8883023F402
S3150800460040427B685B6D48491343C1F888307B6834
S315080046101B6803F48073002B0AD0434BD3F8883009
S3150800462023F440327B689B6D3F491343C1F88830B9
S315080046307B681B6803F40053002B28D03A4BD3F849
S31508004640883023F040627B68DB6E37491343C1F834
S3150800465088307B68DB6EB3F1006F06D1324BDB68BE
S31508004660314A43F48013D36011E07B68DB6EB3F103
S31508004670806F0CD17B6804330121184600F0C8F816
S315080046800346FB74FB7C002B01D0FB7CBB747B6868
S315080046901B6803F40023002B28D0234BD3F888305B
S315080046A023F040627B681B6F1F491343C1F88830AB
S315080046B07B681B6FB3F1006F06D11B4BDB681A4A88
S315080046C043F48013D36011E07B681B6FB3F1806FEE
S315080046D00CD17B6804330121184600F099F803468B
S315080046E0FB74FB7C002B01D0FB7CBB747B681B68CE
S315080046F003F48023002B2BD00B4BD3F8883023F000
S3150800470040627B685B6F08491343C1F888307B6851
S315080047105B6FB3F1006F09D1034BDB68024A43F4C0
S315080047208013D36014E000BF001002407B685B6F03
S31508004730B3F1806F0CD17B6804330121184600F071
S3150800474067F80346FB74FB7C002B01D0FB7CBB742B
S315080047507B681B6803F48043002B2FD02B4BD3F8C0
S31508004760883023F040527B689B6F28491343C1F871
S3150800477088307B689B6FB3F1805F0DD17B6804330B
S315080047800221184600F044F80346FB74FB7C002B14
S3150800479014D0FB7CBB7411E07B689B6FB3F1005FA0
S315080047A00CD17B6820330221184600F025F9034610
S315080047B0FB74FB7C002B01D0FB7CBB747B681B68FD
S315080047C003F40043002B0AD0104BD3F8883023F0AB
S315080047D080427B68DB6F0D491343C1F888307B68DC
S315080047E01B6803F48033002B0BD0084BD3F88830B2
S315080047F023F000427B68D3F8803004491343C1F89C
S315080048008830BB7C18461837BD4680BD001002406C
S3150800481080B584B000AF786039600023FB73754BB0
S31508004820DB6803F00303002B18D0724BDB6803F038
S3150800483003027B681B689A420DD17B681B68002BB4
S3150800484009D06C4BDB681B0903F007035A1C7B680D
S315080048505B689A4247D00123FB7344E07B681B6878
S31508004860032B18D0032B25D8012B02D0022B09D0F5
S3150800487020E0604B1B6803F00203002B1DD10123C7
S31508004880FB731AE05B4B1B6803F48063002B16D19D
S315080048900123FB7313E0574B1B6803F40033002B0B
S315080048A00FD1544B1B6803F48023002B09D1012335
S315080048B0FB7306E00123FB7304E000BF02E000BFC0
S315080048C000E000BFFB7B002B0DD14A4BDB6823F0D1
S315080048D073027B6819687B685B68013B1B010B43A5
S315080048E044491343CB60FB7B002B7DD1414B1B68AE
S315080048F0404A23F080631360FDF7D2FEB86009E0F2
S31508004900FDF7CEFE0246BB68D31A022B02D9032353
S31508004910FB7305E0374B1B6803F00063002BEFD1F0
S31508004920FB7B002B60D13B68002B11D1314B1B69F7
S3150800493023F41F3323F440737A68926811027A6865
S31508004940D268120952040A432A4913430B6127E025
S315080049503B68012B12D1274B1B6923F4C00323F4B0
S31508004960FE437A68926811027A6812695208013A17
S3150800497052050A431F4913430B6111E01D4B1B697E
S3150800498023F0C06323F4FE437A68926811027A68BA
S3150800499052695208013A52060A43164913430B61F3
S315080049A0144B1B68134A43F080631360FDF778FEC7
S315080049B0B86009E0FDF774FE0246BB68D31A022BFD
S315080049C002D90323FB7305E00A4B1B6803F0006357
S315080049D0002BEFD0FB7B002B06D1064B1A697B68B0
S315080049E09B69044913430B61FB7B18461037BD4688
S315080049F080BD00BF0010024080B584B000AF78606B
S31508004A0039600023FB736A4BDB6803F00303002B52
S31508004A1018D0674BDB6803F003027B681B689A4271
S31508004A200DD17B681B68002B09D0614BDB681B091D
S31508004A3003F007035A1C7B685B689A4247D0012338
S31508004A40FB7344E07B681B68032B18D0032B25D81F
S31508004A50012B02D0022B09D020E0554B1B6803F02E
S31508004A600203002B1DD10123FB731AE0504B1B6870
S31508004A7003F48063002B16D10123FB7313E04C4B20
S31508004A801B6803F40033002B0FD1494B1B6803F452
S31508004A908023002B09D10123FB7306E00123FB7356
S31508004AA004E000BF02E000BF00E000BFFB7B002B74
S31508004AB00DD13F4BDB6823F073027B6819687B686E
S31508004AC05B68013B1B010B4339491343CB60FB7BF6
S31508004AD0002B67D1364B1B68354A23F08053136089
S31508004AE0FDF7DEFDB86009E0FDF7DAFD0246BB68B2
S31508004AF0D31A022B02D90323FB7305E02C4B1B6840
S31508004B0003F00053002BEFD1FB7B002B4AD13B6807
S31508004B10002B11D1264B5B6923F41F3323F4407312
S31508004B207A68926811027A68D268120952040A43AE
S31508004B301F4913434B6111E01D4B5B6923F0C063AA
S31508004B4023F4FE437A68926811027A681269520859
S31508004B50013A52060A43164913434B61144B1B6824
S31508004B60134A43F080531360FDF79AFDB86009E0D5
S31508004B70FDF796FD0246BB68D31A022B02D903231A
S31508004B80FB7305E00A4B1B6803F00053002BEFD0BC
S31508004B90FB7B002B06D1064B5A697B685B69044987
S31508004BA013434B61FB7B18461037BD4680BD00BFDB
S31508004BB00010024080B584B000AF78607B68002B97
S31508004BC001D1012395E07B685B6A002B08D17B68DD
S31508004BD05B68B3F5827F09D07B680022DA6105E05D
S31508004BE07B6800221A617B6800225A617B68002272
S31508004BF09A627B6893F85D30DBB2002B06D17B683E
S31508004C00002283F85C207868FDF7BAFA7B680222EE
S31508004C1083F85D207B681B681A687B681B6822F02E
S31508004C2040021A607B68DB68B3F5E06F02D900239F
S31508004C30FB6002E04FF48053FB607B68DB68B3F5EA
S31508004C40706F07D07B68DB68B3F5E06F02D07B68CE
S31508004C5000229A627B685B6803F482727B689B68B1
S31508004C6003F404431A437B681B6903F002031A43DF
S31508004C707B685B6903F001031A437B689B6903F44D
S31508004C8000731A437B68DB6903F038031A437B68B1
S31508004C901B6A03F0800342EA03017B689B6A03F4FC
S31508004CA000527B681B680A431A607B689B691B0C69
S31508004CB003F004027B685B6A03F010031A437B68FF
S31508004CC05B6B03F008031A437B68DB6803F47063C5
S31508004CD042EA0301FB6803F480527B681B680A43B7
S31508004CE05A607B6800221A667B68012283F85D2079
S31508004CF0002318461037BD4680BD80B588B000AF82
S31508004D00F860B9603B601346FB80FDF7C9FCF861A3
S31508004D10FB887B83FB6893F85D30DBB2012B01D0FF
S31508004D2002235CE1BB68002B02D0FB88002B01D173
S31508004D30012354E1FB6893F85C30012B01D102236F
S31508004D404DE1FB68012283F85C20FB68032283F8A7
S31508004D505D20FB6800221A66FB68BA689A63FB68DE
S31508004D60FA889A87FB68FA88DA87FB6800221A6449
S31508004D70FB680022A3F84420FB680022A3F846201B
S31508004D80FB6800221A65FB680022DA64FB689B68E8
S31508004D90B3F5004F0FD1FB681B681A68FB681B68E0
S31508004DA022F040021A60FB681B681A68FB681B68D9
S31508004DB042F480421A60FB681B681B6803F04003D4
S31508004DC0402B07D0FB681B681A68FB681B6842F013
S31508004DD040021A60FB68DB68B3F5E06F52D9FB68DE
S31508004DE05B68002B02D07B8B012B45D1FB689B6B44
S31508004DF01A88FB681B68DA60FB689B6B9A1CFB6861
S31508004E009A63FB68DB8F9BB2013B9AB2FB68DA8731
S31508004E1032E0FB681B689B6803F00203022B12D181
S31508004E20FB689B6B1A88FB681B68DA60FB689B6BE0
S31508004E309A1CFB689A63FB68DB8F9BB2013B9AB2AC
S31508004E40FB68DA8718E0FDF72BFC0246FB69D31AE4
S31508004E503A689A4203D83B68B3F1FF3F02D13B68F0
S31508004E60002B09D1FB68012283F85D20FB6800222C
S31508004E7083F85C200323B2E0FB68DB8F9BB2002B30
S31508004E80C7D183E0FB685B68002B02D07B8B012BC4
S31508004E9077D1FB68DB8F9BB2012B12D9FB689B6B22
S31508004EA01A88FB681B68DA60FB689B6B9A1CFB68B0
S31508004EB09A63FB68DB8F9BB2023B9AB2FB68DA8780
S31508004EC05FE0FB689A6BFB681B680C3312781A70F4
S31508004ED0FB689B6B5A1CFB689A63FB68DB8F9BB26B
S31508004EE0013B9AB2FB68DA874BE0FB681B689B6854
S31508004EF003F00203022B2BD1FB68DB8F9BB2012B3D
S31508004F0012D9FB689B6B1A88FB681B68DA60FB681A
S31508004F109B6B9A1CFB689A63FB68DB8F9BB2023B10
S31508004F209AB2FB68DA872CE0FB689A6BFB681B6809
S31508004F300C3312781A70FB689B6B5A1CFB689A63D1
S31508004F40FB68DB8F9BB2013B9AB2FB68DA8718E0F5
S31508004F50FDF7A6FB0246FB69D31A3A689A4203D8BC
S31508004F603B68B3F1FF3F02D13B68002B09D1FB68D0
S31508004F70012283F85D20FB68002283F85C20032366
S31508004F802DE0FB68DB8F9BB2002BAED1FA6939683E
S31508004F90F86800F065FB0346002B02D0FB68202268
S31508004FA01A66FB689B68002B0AD100237B61FB68A5
S31508004FB01B68DB687B61FB681B689B687B617B6998
S31508004FC0FB68012283F85D20FB68002283F85C20D9
S31508004FD0FB681B6E002B01D0012300E00023184656
S31508004FE02037BD4680BD80B58AB000AFF860B9608D
S31508004FF07A607B8001237B62FDF752FB3862FB688F
S3150800500093F85D30FB77FB685B68BB617B88FB8246
S315080050107B88BB82FB7F012B0CD0BB69B3F5827FF3
S3150800502006D1FB689B68002B02D1FB7F042B01D0BD
S315080050300223F3E1BB68002B05D07B68002B02D066
S315080050407B88002B01D10123E8E1FB6893F85C30EB
S31508005050012B01D10223E1E1FB68012283F85C20E0
S31508005060FB6893F85D30DBB2042B03D0FB6805229E
S3150800507083F85D20FB6800221A66FB687A681A6462
S31508005080FB687A88A3F84620FB687A88A3F8442048
S31508005090FB68BA689A63FB687A88DA87FB687A8855
S315080050A09A87FB680022DA64FB6800221A65FB68A7
S315080050B0DB68B3F5E06F02D8BB8A012B08D9FB6819
S315080050C01B685A68FB681B6822F480525A6007E01E
S315080050D0FB681B685A68FB681B6842F480525A6072
S315080050E0FB681B681B6803F04003402B07D0FB686E
S315080050F01B681A68FB681B6842F040021A60FB6866
S31508005100DB68B3F5E06F40F28380FB685B68002BD1
S3150800511002D0FB8A012B6FD1FB689B6B1A88FB6850
S315080051201B68DA60FB689B6B9A1CFB689A63FB68D2
S31508005130DB8F9BB2013B9AB2FB68DA875CE0FB68BF
S315080051401B689B6803F00203022B1BD1FB68DB8FED
S315080051509BB2002B16D07B6A012B13D1FB689B6B85
S315080051601A88FB681B68DA60FB689B6B9A1CFB68ED
S315080051709A63FB68DB8F9BB2013B9AB2FB68DA87BE
S3150800518000237B62FB681B689B6803F00103012B05
S315080051901CD1FB68B3F846309BB2002B16D0FB68CF
S315080051A01B68DA68FB681B6C92B21A80FB681B6C7A
S315080051B09A1CFB681A64FB68B3F846309BB2013B3D
S315080051C09AB2FB68A3F8462001237B62FDF768FACA
S315080051D002463B6AD31A3A6B9A420DD83B6BB3F137
S315080051E0FF3F09D0FB68012283F85D20FB68002297
S315080051F083F85C20032311E1FB68DB8F9BB2002B4D
S315080052009DD1FB68B3F846309BB2002B97D1E5E0F9
S31508005210FB685B68002B03D0FB8A012B40F0D1802A
S31508005220FB68DB8F9BB2012B12D9FB689B6B1A8834
S31508005230FB681B68DA60FB689B6B9A1CFB689A63C1
S31508005240FB68DB8F9BB2023B9AB2FB68DA87B8E051
S31508005250FB689A6BFB681B680C3312781A70FB683C
S315080052609B6B5A1CFB689A63FB68DB8F9BB2013BFE
S315080052709AB2FB68DA87A4E0FB681B689B6803F0B0
S315080052800203022B34D1FB68DB8F9BB2002B2FD095
S315080052907B6A012B2CD1FB68DB8F9BB2012B12D9C1
S315080052A0FB689B6B1A88FB681B68DA60FB689B6B5C
S315080052B09A1CFB689A63FB68DB8F9BB2023B9AB227
S315080052C0FB68DA8712E0FB689A6BFB681B680C338D
S315080052D012781A70FB689B6B5A1CFB689A63FB680A
S315080052E0DB8F9BB2013B9AB2FB68DA8700237B62AD
S315080052F0FB681B689B6803F00103012B48D1FB6818
S31508005300B3F846309BB2002B42D0FB68B3F8463060
S315080053109BB2012B23D9FB681B68DA68FB681B6CF8
S3150800532092B21A80FB681B6C9A1CFB681A64FB68AD
S31508005330B3F846309BB2023B9AB2FB68A3F8462004
S31508005340FB68B3F846309BB2012B1FD8FB681B6875
S315080053505A68FB681B6842F480525A6016E0FB687C
S315080053601B6803F10C02FB681B6C1278D2B21A7028
S31508005370FB681B6C5A1CFB681A64FB68B3F846305A
S315080053809BB2013B9AB2FB68A3F8462001237B62D5
S31508005390FDF786F902463B6AD31A3A6B9A4203D856
S315080053A03B6BB3F1FF3F02D13B6B002B09D1FB6886
S315080053B0012283F85D20FB68002283F85C20032322
S315080053C02CE0FB68DB8F9BB2002B7FF455AFFB68A4
S315080053D0B3F846309BB2002B7FF44EAF3A6A396B6E
S315080053E0F86800F03DF90346002B08D0FB68202238
S315080053F01A66FB68002283F85C2001230EE0FB682E
S31508005400012283F85D20FB68002283F85C20FB6894
S315080054101B6E002B01D0012300E000231846283715
S31508005420BD4680BD80B588B000AFF860B9603B6006
S315080054301346FB71FDF734F90246BB6A9B1A3A68B4
S315080054401344FB61FDF72CF9B861394B1B685B0106
S315080054501B0DFA6902FB03F37B6154E03B68B3F169
S31508005460FF3F50D0FDF71CF90246BB69D31AFA690B
S315080054709A4202D9FB69002B3DD1FB681B685A6822
S31508005480FB681B6822F0E0025A60FB685B68B3F5AC
S31508005490827F11D1FB689B68B3F5004F04D0FB6887
S315080054A09B68B3F5806F07D1FB681B681A68FB68B1
S315080054B01B6822F040021A60FB689B6AB3F5005F1E
S315080054C00FD1FB681B681A68FB681B6822F4005238
S315080054D01A60FB681B681A68FB681B6842F400526E
S315080054E01A60FB68012283F85D20FB68002283F8B6
S315080054F05C20032317E07B69002B01D10023FB61A5
S315080055007B69013B7B61FB681B689A68BB68134033
